S00B00006C63642E73726563E6
S11300000C9434000C9449000C9449000C9449005D
S11300100C9449000C9449000C9449000C94490038
S11300200C9449000C9449000C9449000C94490028
S11300300C9449000C9449000C9449000C94490018
S11300400C9449000C9449000C9449000C94490008
S11300500C9449000C9449000C9449000C944900F8
S11300600C9449000C94490011241FBECFEFD8E032
S1130070DEBFCDBF11E0A0E0B1E0E0E0F2E002C0FD
S113008005900D92A033B107D9F70E94E2000C94B9
S1130090FE000C940000299A85E08A95F1F700008F
S11300A029980895CF93C82F662311F0289A01C088
S11300B02898549A559A569A579A5F985E985D98DC
S11300C05C98CC230CF45F9AC6FD5E9AC5FD5D9ADC
S11300D0C4FD5C9A0E944B005F985E985D985C98A2
S11300E0C3FD5F9AC2FD5E9AC1FD5D9AC0FD5C9A34
S11300F00E944B005C9A5D9A5E9A5F9A87EB9BE044
S11301000197F1F700C00000CF91089560E00E94CC
S11301105200089561E00E9452000895611104C0E4
S113012080580E948600089580540E948600089595
S113013081E00E948600089561E00E9452000895C3
S1130140CF93C82F209A559A219A549A559A569A21
S1130150579A8FEF99EF0197F1F700C000005D9A6D
S11301605C9A0E944B008FE19EE40197F1F700C076
S113017000000E944B008FEF90E00197F1F700C060
S113018000000E944B008FEF90E00197F1F700C050
S113019000005C980E944B008FEF90E00197F1F70C
S11301A000C0000088E20E94860088E00E94860069
S11301B00E94980086E00E9486008C2F0E94860090
S11301C0CF9108958CE00E94A00080E40E948600F4
S11301D0C0E0D1E000E311E089910E948A00C017D9
S11301E0D107D1F780E80E94860060E08BE00E948E
S11301F08E0084E40E949C007894FFCFF894FFCF93
S1130200000000000000000010101010101010106A
S113021018181818181818181C1C1C1C1C1C1C1C3A
S11302201E1E1E1E1E1E1E1E1F1F1F1F1F1F1F1FE2
S9030000FC
