S01200004C61623120626C696E6B2E73726563A2
S11300000C9434000C943E000C943E000C943E007E
S11300100C943E000C943E000C943E000C943E0064
S11300200C943E000C943E000C943E000C943E0054
S11300300C943E000C943E000C943E000C943E0044
S11300400C943E000C943E000C943E000C943E0034
S11300500C943E000C943E000C943E000C943E0024
S11300600C943E000C943E0011241FBECFEFD8E048
S1130070DEBFCDBF0E9440000C9416010C9400001A
S1130080259A2D9880E295B1982795B92FEF3BE4F6
S11300909DE1215030409040E1F700C0000095B14F
S11300A0982795B92FEF33EC99E0215030409040D8
S11300B0E1F700C0000095B1982795B92FEF33EC14
S11300C099E0215030409040E1F700C0000095B124
S11300D0982795B92FEF33EC99E0215030409040A8
S11300E0E1F700C0000095B1982795B92FEF33ECE4
S11300F099E0215030409040E1F700C000002D9875
S11301002FEF3BE49DE1215030409040E1F700C0E7
S1130110000095B1982795B92FEF33EC99E0215061
S113012030409040E1F700C000002D982FEF3BE4F1
S11301309DE1215030409040E1F700C0000095B1AE
S1130140982795B92FEF33EC99E021503040904037
S1130150E1F700C0000095B1982795B92FEF33EC73
S113016099E0215030409040E1F700C0000095B183
S1130170982795B92FEF33EC99E021503040904007
S1130180E1F700C0000095B1982795B92FEF33EC43
S113019099E0215030409040E1F700C0000095B153
S11301A0982795B92FEF3BE49DE1215030409040D2
S11301B0E1F700C0000095B1982795B92FEF33EC13
S11301C099E0215030409040E1F700C0000095B123
S11301D0982795B92FEF3BE49DE1215030409040A2
S11301E0E1F700C0000095B1982795B92FEF33ECE3
S11301F099E0215030409040E1F700C0000095B1F3
S1130200982795B92FEF3BE49DE121503040904071
S1130210E1F700C000002D982FEF37EA91E6215056
S113022030409040E1F700C000002DCFF894FFCF9C
S9030000FC
