S021000070726F6A656B745F78647573656B33305F7873766F626F31712E737265630C
S11300000C9434000C9451000C9451000C94510045
S11300100C9451000C9451000C9451000C94510018
S11300200C9451000C9451000C9451000C94510008
S11300300C9451000C946E010C9451000C945100DA
S11300400C943E010C9451000C9435020C94630200
S11300500C9451000C9451000C9451000C945100D8
S11300600C9451000C94510011241FBECFEFD8E022
S1130070DEBFCDBF11E0A0E0B1E0EEE1F5E002C0EB
S113008005900D92AC31B107D9F721E0ACE1B1E0B4
S113009001C01D92A436B207E1F70E940F010C942F
S11300A08D020C940000FC01408121E030E002C08C
S11300B0220F331F6A95E2F7242B20830895FC0155
S11300C0908121E030E002C0220F331F6A95E2F7ED
S11300D02095292320830895FC01408121E030E00C
S11300E002C0220F331F6A95E2F7242B2083089560
S11300F0299A000029980895CF93C82F662311F0F8
S1130100289A01C02898549A559A569A579A5F98F3
S11301105E985D985C98CC230CF45F9AC6FD5E9A59
S1130120C5FD5D9AC4FD5C9A0E9478005F985E9854
S11301305D985C98C3FD5F9AC2FD5E9AC1FD5D9AAD
S1130140C0FD5C9A0E9478005C9A5D9A5E9A5F9A00
S11301508AEF8A95F1F7CF91089560E00E947C00C0
S11301600895611104C080580E94AD000895805420
S11301700E94AD00089581E00E94AD00089561E001
S11301800E947C000895CF93DF93EC012196FC013B
S11301908081882329F00E94BF0089918111FBCFBF
S11301A0DF91CF910895CF93C82F209A559A219A21
S11301B0549A559A569A579A8FE99FE00197F1F706
S11301C000C000005D9A5C9A0E94780081EE94E081
S11301D00197F1F700C000000E94780095E19A951C
S11301E0F1F700000E94780085E18A95F1F700009C
S11301F05C980E94780095E19A95F1F7000088E2F6
S11302000E94AD0088E00E94AD000E94BB0086E021
S11302100E94AD008C2F0E94AD00CF9108958CE018
S11302200E94D30060E081E00E94B10080E191E08F
S11302300E94C30060E08DE00E94B10089E191E07A
S11302400E94C3000E948E0185B58C7F85BD85B553
S1130250846085BDEEE6F0E0808181608083E1E822
S1130260F0E080818B7F8083808183608083EFE6F0
S1130270F0E08081816080837894FFCF1F920F9299
S11302800FB60F9211242F933F934F935F936F9365
S11302907F938F939F93AF93BF93EF93FF9380913B
S11302A01C0181110AC0809163010E94A301109274
S11302B01C01809162010E94EC01FF91EF91BF91BA
S11302C0AF919F918F917F916F915F914F913F91EA
S11302D02F910F900FBE0F901F9018951F920F92A1
S11302E00FB60F9211248F93809163018F5F883032
S11302F018F4809363010CC0109263018091620131
S11303008F5F863018F48093620102C010926201FC
S11303108F910F900FBE0F901F90189563E087E2A6
S113032090E00E94530060E087E290E00E94530056
S113033062E087E290E00E94530061E087E290E08F
S11303400E9453000895CF93DF93E82FF0E0E85F15
S1130350FE4FD08160E088E290E00E945F0062E09E
S113036088E290E00E945F0061E088E290E00E94F1
S11303705F0085E08A95F1F70000C8E0D0FD06C073
S113038060E088E290E00E945F0005C060E088E2DF
S113039090E00E946C0085E08A95F1F7000062E02D
S11303A088E290E00E946C0085E08A95F1F70000F5
S11303B062E088E290E00E945F00D695C150F1F6B9
S11303C061E088E290E00E946C0085E08A95F1F794
S11303D00000DF91CF910895CF93DF93E82FF0E0F1
S11303E0E050FF4FD08163E088E290E00E945F001C
S11303F062E088E290E00E945F0061E088E290E0C1
S11304000E945F0085E08A95F1F70000C8E0D0FD06
S113041006C063E088E290E00E945F0005C063E0EC
S113042088E290E00E946C0085E08A95F1F7000074
S113043062E088E290E00E946C0085E08A95F1F722
S1130440000062E088E290E00E945F00D695C1500F
S1130450F1F661E088E290E00E946C0085E08A9504
S1130460F1F70000DF91CF9108951F920F920FB61C
S11304700F9211242F938F939F93EF93FF93809167
S1130480C0002091C6008C71E0911F01EF5FEF71F5
S113049090911E01E91739F0E0931F01F0E0EE5D41
S11304A0FE4F208301C082E090911D01892B80932F
S11304B01D01FF91EF919F918F912F910F900FBE8E
S11304C00F901F9018951F920F920FB60F92112440
S11304D08F939F93EF93FF9390912101809120013B
S11304E0981769F0E0912001EF5FEF71E09320012C
S11304F0F0E0EE5BFE4F80818093C60005C0E1EC26
S1130500F0E080818F7D8083FF91EF919F918F91A7
S11105100F900FBE0F901F901895F894FFCF18
S113051E0103070F1F3F7FFF0103070F1F3F7FFFDD
S10F052E44697374616E636500636D00C2
S9030000FC
