S01900004B6E696768742052696465207374796C652E73726563B1
S11300000C9434000C943E000C943E000C943E007E
S11300100C943E000C943E000C943E000C943E0064
S11300200C943E000C943E000C943E000C943E0054
S11300300C943E000C943E000C943E000C943E0044
S11300400C943E000C943E000C943E000C943E0034
S11300500C943E000C943E000C943E000C943E0024
S11300600C943E000C943E0011241FBECFEFD8E048
S1130070DEBFCDBF0E9440000C94FB000C94000036
S1130080389A4098399A41983A9A42983B9A4398B8
S11300903C9A44985098589AA0E1E8E074E062E0F1
S11300A0F1E04899FECF05C02F5F3F4F4F5F5F4F90
S11300B004C041E050E020E030E02115310569F44E
S11300C088B18F2788B98FEF94E3BCE081509040CA
S11300D0B040E1F700C00000E7CF2130310581F4E2
S11300E088B1862788B988B18F2788B98FEF94E3C0
S11300F0BCE081509040B040E1F700C00000D4CF94
S11301002230310581F488B1872788B988B18627E0
S113011088B98FEF94E3BCE081509040B040E1F7A0
S113012000C00000C1CF2330310581F488B18E278F
S113013088B988B1872788B98FEF94E3BCE08150F0
S11301409040B040E1F700C00000AECF243031054C
S113015081F488B18A2788B988B18E2788B98FEF4E
S113016094E3BCE081509040B040E1F700C000004F
S11301709BCF25303105D1F588B18A2788B92FEF77
S113018084E39CE0215080409040E1F700C00000EF
S113019088B18E2788B9BFEF24E38CE0B1502040AA
S11301A08040E1F700C0000088B1872788B988B192
S11301B08E2788B99FEFB4E32CE09150B0402040E3
S11301C0E1F700C0000088B1872788B988B1862785
S11301D088B98FEF94E3BCE081509040B040E1F7E0
S11301E000C0000088B1862788B95BCF463051052E
S10D01F00CF45ACF56CFF894FFCF59
S9030000FC
